:020000040800F2
:100000000008002001010008D31700087716000837
:10001000D117000897030008151B00080000000016
:100020000000000000000000000000001D18000893
:100030002D04000800000000F51700081F18000834
:100040001B0100081B0100081B0100081B01000820
:100050001B0100081B0100081B0100081B01000810
:100060001B0100081B0100081B010008D903000840
:100070001B0100081B0100081B0100081B010008F0
:100080001B0100081B0100081B0100081B010008E0
:100090001B0100081B0100081B0100081B010008D0
:1000A0001B0100081B0100081B0100081B010008C0
:1000B0001B010008C91800081B0100081B010008EB
:1000C0001B0100081B0100081B0100081B010008A0
:1000D0001B0100081B0100081B0100081B01000890
:1000E0001B0100081B0100081B010008DFF80CD0F1
:1000F00000F030F900480047351B000800080020D8
:100100000648804706480047FEE7FEE7FEE7FEE7B1
:10011000FEE7FEE7FEE7FEE7FEE7FEE781180008E0
:10012000ED000008202A04DB203A21FA02F0002129
:10013000704721FA02F3D040C2F1200291400843F7
:1001400019467047D2B201E000F8012B491EFBD2DC
:1001500070470022F6E710B513460A4604461946D2
:10016000FFF7F0FF204610BD2DE9FE4F81EA0304A2
:1001700004F0004421F0004100944FF0000B23F004
:10018000004350EA01045ED052EA03045BD0C3F39B
:100190000A54C1F30A552C44A4F2F3340194A0FB91
:1001A0000254C1F3130141F48011C3F3130343F468
:1001B000801301FB024400FB034E840A970A44EAC1
:1001C000815447EA8357A4FB076802958D0A05FB13
:1001D00007854FEA932C04FB0C542705029D4FEA38
:1001E000065847EA1637B5EB08056EEB070C870E85
:1001F000920E47EA811742EA8312A7FB0201B6EB8F
:100200000B0164EB00042B0D43EA0C335E1844EB46
:100210001C50DA465146E7FB0201C5F313044FEACE
:100220000B3343EA14534FEA0432019C43EA0603BA
:10023000A4F10C040294009CCDE900B400F03BF85A
:1002400003B0BDE8F08F00200146F9E70EB540F29B
:10025000334102910021CDE900110A460B4600F01E
:100260002AF803B000BDC1F30A5210B5C1F313015F
:1002700040F2FF3341F480119A4201DA002010BDB0
:1002800040F233439A42A2F2334203DC5242FFF778
:1002900049FF10BD904010BD10B5141E73F100044D
:1002A00008DA401C41F1000192185B411A4301D168
:1002B00020F0010010BD2DE9F04D92469B4611B192
:1002C000B1FA81F202E0B0FA80F22032904600F0FA
:1002D00053F804460F4640EA0A0041EA0B01534630
:1002E0005A46084313D0114653EA010019D0C8F109
:1002F00040025046FFF716FF05460E465046594647
:10030000424600F039F8084305D0012004E02046B9
:100310003946BDE8F08D0020054346EAE0762C43DF
:1003200037430A986305E40AA0EB08000022FD0A9F
:1003300044EA47540A3002D500200146E9E70105A6
:1003400010196941DDE9084500196941BDE8F04D22
:10035000A2E70000064C074D06E0E06840F001030C
:1003600094E8070098471034AC42F6D3FFF7C2FE7A
:10037000541C0008741C0008202A04DB203A00FAF0
:1003800002F1002070479140C2F1200320FA03F3EC
:10039000194390407047FEE710B50446032903D285
:1003A000152C00D215240321092903D9172C00D9B3
:1003B00017240921481CFFF749FF054A054BFFF7A1
:1003C000D3FEFFF750FF20443F3880B210BD00003D
:1003D0009A99999999993E4010B50021054801F0E4
:1003E00059F8054800F024F8BDE81040034800F033
:1003F000C2BD0000D8000020180100209800002095
:1004000030B590F840500124AC40C56B6C60046876
:1004100063604368102B04D0036899600068C26071
:1004200030BD03689A600068C16030BD7047704796
:100430002DE9F05FC16B0A6801680B68046C4FF02E
:10044000040A0AFA04FA4E4D4E4E4F4FDFF83CC1F3
:10045000DFF83C81DFF83C911AEA020F31D05FEA05
:10046000437A2ED50A68920603D40A6822F0040261
:100470000A600168A94201D1042119E0B14201D109
:10048000402115E0B94202D14FF4806110E061458E
:1004900002D14FF480410BE0414502D14FF480215D
:1004A00006E0494502D14FF4800101E04FF0806140
:1004B000334A083A5160C16A00295FD0BDE8F05F55
:1004C00008474FF0020E0EFA04FE1EEA020F4FF02C
:1004D000000A4FF0010B35D05FEA837E32D50A68FF
:1004E000920605D40A6822F00A020A6080F821B058
:1004F0000168A94201D1022119E0B14201D12021B4
:1005000015E0B94202D14FF4007110E0614502D10B
:100510004FF400510BE0414502D14FF4003106E0A9
:10052000494502D14FF4001101E04FF00071144A27
:10053000083A516080F820A0816A00291ED0BDE8E9
:10054000F05F08470825A540154217D01A0715D5B2
:100550000A6822F00E020A6090F84010C26B0BFA93
:1005600001F15160C0F838B080F821B080F820A0C7
:10057000016B002902D0BDE8F05F0847BDE8F09F9D
:10058000080002401C0002403000024044000240CB
:10059000580002406C00024030B5002827D0001DF2
:1005A000144A50F8041C14230A44B2FBF3F29200DC
:1005B000C263114A8263022242770A6843F6F073EB
:1005C0009A43D0E900342343D0E902452C43234326
:1005D00004692343446923438469234313430B6021
:1005E00000214163012242770177002030BD0120C4
:1005F00030BD0000F8FFFDBF0000024070B50446AA
:10060000002594F8200001280CD0012084F8200057
:1006100094F821600020012E06D084F820000225E5
:10062000284670BD022070BD022684F82160A063B8
:100630002068066826F0010606602046FFF7E0FE07
:10064000E06A28B12068016841F00E01016009E00C
:100650002068016821F0040101602068016841F010
:100660000A0101602068016841F001010160D7E7DB
:100670002DE9F84F00230024DFF8C0914FF00F0858
:1006800009F1040A0AF1040B0BF1040E0127A7403B
:100690000A683A40BA4275D1DFF8A4C14D68A5EBAB
:1006A0000C0665452BD00DDC032D34D005DC35B3AD
:1006B000012D19D0022D2FD11BE0112D16D0122D96
:1006C0002AD119E0B6F5881F19D006DCB6F5803FAF
:1006D00015D0B6F5801F1FD111E0B6F5001F0ED062
:1006E000B6F5041F18D10AE0CB6815E0CB681B1DD6
:1006F00012E0CB6808330FE0CB680C330CE08B685A
:1007000023B1012B04D00823476105E0042303E053
:100710000823076100E00023FF2A01D8054601E015
:1007200000F1040502D84FEA840603E0A4F10806AC
:100730004FEA86062F6808FA06FC27EA0C0703FA38
:1007400006F647EA06072F604D68ED0070D53D4D6F
:10075000AE6946F00106AE61AD6905F00105009590
:10076000394D24F003067719BE68A5072D0F08FA46
:1007700005FC26EA0C06DFF8D4C0604503D14FF033
:10078000000C17E054E0DFF8C8C0604502D14FF01C
:10079000010C0FE0DFF8BCC0604502D14FF0020C45
:1007A00008E0DFF8B4C0604502D14FF0030C01E06F
:1007B0004FF0040C0CFA05FC4CEA060CC7F808C014
:1007C0004D68ED0305D5D9F800501543C9F8005020
:1007D00004E0D9F800509543C9F800504D68AD03C6
:1007E00005D5DAF800501543CAF8005004E0DAF8ED
:1007F00000509543CAF800504D68ED0205D5DBF86E
:1008000000501543CBF8005004E0DBF8005095434E
:10081000CBF800504D68AD0205D5DEF80050154309
:10082000CEF8005004E0DEF800509543CEF80050BA
:10083000641C102CFFF42AAFBDE8F88F00040140BF
:1008400000001110001002400000014000080140AB
:10085000000C014000100140001401400148806874
:100860007047000088000020024881680278114427
:10087000816070478800002010B50748016841F08A
:1008800010010160032000F075F8002000F006F868
:1008900000F026F8002010BD0020024070B504468C
:1008A0000D4D4FF47A712878B1FBF0F00B490968CF
:1008B000B1FBF0F000F014FB08B1012070BD102C6A
:1008C00007D200222146501E00F034F86C60002050
:1008D00070BD012070BD0000880000209400002041
:1008E00008B50C48816941F001018161816901F01D
:1008F00001010091C16941F08051C161C06900F0FE
:10090000805000900449486820F0E06040F000709A
:10091000486008BD001002400000014000F01F02C6
:10092000012191404009800000F1E020C0F8001151
:1009300070470000F0B40D460D4B1B68C3F3022353
:10094000C3F10704042C00D90424191D072901D27E
:10095000002300E0DB1E012606FA04F1491E2940AF
:1009600099409E40761E16403143F0BC00F032BFE5
:100970000CED00E000F00701054A10684FF6FF0398
:10098000184040EA01200349084310607047000006
:100990000CED00E00000FA052DE9F04704460E4694
:1009A000DFF86081D8F8000000F00700B0420FD2F5
:1009B000D8F8000020F007003043C8F80000D8F84D
:1009C000000000F00700B04202D00120BDE8F0872F
:1009D00020684D4F810712D5400703D5786840F451
:1009E000E06078602078000703D5786840F46050B4
:1009F00078607868A16820F0F0000843786020787B
:100A0000C00748D06068012806D0022809D039689C
:100A100089070BD40120D9E73968890306D401205E
:100A2000D4E73968890101D40120CFE7796821F042
:100A3000030101437960FFF711FF0546606841F249
:100A40008839012809D0022814D020E0FFF706FFDA
:100A5000401B484501D90320B8E77868C0F38100FE
:100A60000128F3D117E0FFF7F9FE401B484501D9F3
:100A70000320ABE77868C0F381000228F3D10AE0D5
:100A8000FFF7ECFE401B484501D903209EE778683C
:100A900010F00C0FF4D1D8F8000000F00700B042BD
:100AA0000ED9D8F8000020F007003043C8F8000045
:100AB000D8F8000000F00700B04201D0012085E71F
:100AC0002078400705D57868E16820F4E0600843A5
:100AD00078602078000706D57868216920F4605096
:100AE00040EAC100786000F015F87968074AC1F360
:100AF0000311515CC840064908600020FFF7CEFE94
:100B0000002063E70020024000100240441C00085F
:100B10009400002085B014A090E80E00C068CDE9D4
:100B200002230191049014A000680090134B5968AF
:100B3000134801F00C02042A10D0082A0ED101A893
:100B4000C1F38342805CC9030AD55968C1F34041AF
:100B50001DF801100A4A5043B0FBF1F005B0704790
:100B600008494843FAE7000002030405060708099C
:100B70000A0B0C0D0E0F10100102000000100240B5
:100B800000127A0000093D002DE9F84F0446D04DCF
:100B90002078C0075BD06868C0F38100012807D0C7
:100BA0006868C0F3810002280AD16868C00307D5CD
:100BB000286880034BD5606878BB0120BDE8F88FBA
:100BC0006068B0F5803F11D0A8B1B0F5A02F1BD060
:100BD000286820F480302860286820F4802028606D
:100BE000606830B3FFF73AFE06461EE0286840F41E
:100BF00080302860F4E7286820F480302860286876
:100C000020F480202860EBE7286840F480202860EA
:100C1000286840F480302860E2E718E0FFF71EFE05
:100C2000801B642801D90320C8E728688003F5D514
:100C30000DE0FFF713FE064606E0FFF70FFE801BF0
:100C4000642801D90320B9E728688003F5D4207807
:100C5000DFF8808280074FF0010A4FF0000945D588
:100C6000686810F00C0F07D06868C0F38100022894
:100C700012D16868C0030FD42868800704D52069A2
:100C8000012801D0012099E72868616920F0F80067
:100C900040EAC100286029E02069B8B1C8F800A086
:100CA000FFF7DCFD064606E0FFF7D8FD801B0228B3
:100CB00001D9032082E728688007F5D52868616993
:100CC00020F0F80040EAC10028600FE0C8F800906A
:100CD000FFF7C4FD064606E0FFF7C0FD801B0228B3
:100CE00001D903206AE728688007F5D42078000737
:100CF00026D57948A16999B1C0F800A0FFF7AEFDEB
:100D0000064606E0FFF7AAFD801B022801D9032052
:100D100054E7686A8007F5D5012000F06DFD0FE00B
:100D2000C0F80090FFF79AFD064606E0FFF796FD33
:100D3000801B022801D9032040E7686A8007F5D4A8
:100D40002078400773D50026E869C00008D4E86918
:100D500040F08050E861E86900F080500090012682
:100D6000DFF878B1DBF80000C00514D4DBF8000030
:100D700040F48070CBF80000FFF770FD074606E0F6
:100D8000FFF76CFDC01B642801D9032016E7DBF8D0
:100D90000000C005F4D5E068012812D0B0B10528E4
:100DA0001DD0286A20F001002862286A20F0040083
:100DB0002862E06841F2883B28B3FFF74FFD074601
:100DC0001DE0286A40F001002862F2E7286A20F05E
:100DD00001002862286A20F004002862E9E7286AF6
:100DE00040F004002862286A40F001002862E0E731
:100DF000FFF734FDC01B584501D90320DEE6286A01
:100E00008007F5D50DE0FFF729FD074606E0FFF75F
:100E100025FDC01B584501D90320CFE6286A80076D
:100E2000F5D4012E03D1E86920F08050E861E06933
:100E3000A0B36968C1F38101022947D0022805D017
:100E4000C8F86090FFF70AFD04463AE0C8F86090E1
:100E5000FFF704FD064606E0FFF700FD801B0228B1
:100E600001D90320AAE628688001F5D4206AB0F5EC
:100E7000803F05D16868A16820F4003008436860AD
:100E8000D4E908010843696821F4741108436860D3
:100E9000C8F860A0FFF7E2FC044607E014E0FFF7A3
:100EA000DDFC001B022801D9032087E628688001A9
:100EB000F5D509E0FFF7D2FC001B022801D9032079
:100EC0007CE628688001F5D4002077E6012075E6ED
:100ED0000010024000004242800442420070004084
:100EE00010B5401EB0F1807F01D3012010BD4FF03E
:100EF000E02460610F21601700F06CFC0020A0610D
:100F000007202061002010BD7047704730B590F871
:100F10003C20012A20D0012380F83C30022280F8B6
:100F20003D200268546824F07004546002685468DC
:100F30000D682C4354600268946824F08004946027
:100F40000268946849680C43946080F83D30002141
:100F500080F83C10002030BD022030BD022180F816
:100F60003D1001680A6842F001020A60012180F820
:100F70003D10002070470168CA6842F00102CA6053
:100F80000068016841F001010160002070470168BC
:100F9000CA6822F00102CA600068016A41F21112B7
:100FA000114207D1016A9210114203D1016821F068
:100FB00001010160002070477047704770B504461A
:100FC000206801694FF00005C943890716D4C1683C
:100FD000C943890712D4E91E0161012020772068E6
:100FE0008069800703D02046FFF7E7FF05E0204631
:100FF00000F0ECF8204600F0D5F92577206801696B
:10100000C943490718D4C168C943490714D46FF0CC
:1010100004010161022020772068806910F4407F7C
:1010200003D02046FFF7C9FF05E0204600F0CEF8C8
:10103000204600F0B7F9257720680169C943090700
:1010400017D4C168C943090713D46FF008010161BF
:10105000042020772068C069800703D02046FFF76E
:10106000ACFF05E0204600F0B1F8204600F09AF908
:10107000257720680169C943C90618D4C168C943E6
:10108000C90614D46FF01001016108202077206890
:10109000C06910F4407F03D02046FFF78EFF05E0C3
:1010A000204600F093F8204600F07CF92577206870
:1010B0000169C943C90708D1C168C943C90704D137
:1010C000891E0161204600F02BFA20680169C9439E
:1010D000090609D4C168C943090605D46FF0800127
:1010E00001612046FFF710FF20680169C9434906E6
:1010F00009D4C168C943490605D46FF040010161B4
:10110000204600F0B7FA20680169C94389060BD46C
:10111000C168C943890607D46FF0200101612046E8
:10112000BDE87040FFF7F1BE70BD000000B585B0AE
:101130000021019102910391049100680B498842BA
:1011400011D10B48816941F008018161806900F08B
:10115000080000904020019002200290049001A914
:101160000448FFF785FA05B000BD00000008004004
:1011700000100240000C014070B5044694F83C0099
:1011800001280DD0012584F83C50022084F83D0050
:1011900042B1042A0AD0082A0CD00C2A11D10DE041
:1011A000022070BD206800F0FFFB0AE0206800F01C
:1011B0002BFC06E0206800F059FC02E0206800F0FB
:1011C00085FC3C3465700020207070BD704710B500
:1011D0000446002C03D094F83D0010B107E0012034
:1011E00010BD002084F83C00204600F00DF80220DD
:1011F00084F83D00211D206800F06CFB012084F87C
:101200003D00002010BD000008B500680649884276
:1012100008D10648C16941F00201C161C06900F00E
:101220000200009008BD00000004004000100240D1
:1012300070B504460D4694F83C0001280DD00126F7
:1012400084F83C60022084F83D0042B1042A1AD0A0
:10125000082A2DD00C2A53D13EE0022070BD294629
:10126000206800F0A1FB2068816941F008018161DC
:101270002068816921F004018161206881692A69FF
:10128000114381613CE02946206800F0BDFB2068E5
:10129000816941F4006181612068816921F4806184
:1012A0008161206881692A6941EA0221816127E020
:1012B0002946206800F0DAFB2068C16941F0080186
:1012C000C1612068C16921F00401C1612068C16960
:1012D0002A691143C16113E02946206800F0F6FB3A
:1012E0002068C16941F40061C1612068C16921F4CD
:1012F0008061C1612068C1692A6941EA0221C16136
:101300003C3466700020207070BD10B50446002C7F
:1013100003D094F83D0010B107E0012010BD00207B
:1013200084F83C00204600F00DF8022084F83D00CF
:10133000211D206800F0CEFA012084F83D00002035
:1013400010BD000038B5054612492868884220D1F2
:101350001148C16941F00401C161C06900F0040095
:1013600000900F4C0D482060102060600020A060AD
:101370008021E1604900216189006161A061C800AC
:10138000E0612046FFF708F908B1FFF750F86C62FA
:10139000656238BD000800400010024008000240AD
:1013A000180100207047000070B50D460446114634
:1013B00094F83D00022804D094F83D00012802D0A2
:1013C00008E0022070BD11B90BB1012070BD0220F0
:1013D00084F83D002C482D4A35B1042D13D0082D3A
:1013E00020D00C2D3BD12CE0666AB062606A0263AB
:1013F0002268606A3432FFF701F92068C16841F45D
:101400000071C1602BE0A66AB062A06A0263226824
:10141000A06A3832FFF7F2F82068C16841F48061B1
:10142000C1601CE0E66AB062E06A02632268E06ABA
:101430003C32FFF7E3F82068C16841F40061C16005
:101440000DE0266BB062206B02632268206B403295
:10145000FFF7D4F82068C16841F48051C1600122CF
:101460002946206800F06CFA09492068884203D1B7
:10147000416C41F4004141642068016841F0010180
:101480000160002070BD000057190008991900087C
:10149000002C014010B504460029226806D004291A
:1014A00009D008290CD00C2913D10EE0D06820F403
:1014B0000070D0600DE0D06820F48060D06008E05B
:1014C000D06820F40060D06003E0D06820F4805041
:1014D000D0600022206800F033FA104B41F2111264
:1014E00020689110984209D1036A134206D1036A19
:1014F0000B4203D1436C23F4004343642068036A26
:10150000134206D1026A0A4203D1016821F00101A7
:101510000160012084F83D00002010BD002C014036
:1015200070B54F4D6978697800684E4988427DD121
:101530004D48FFF72CFD09210320FEF72DFF6878A9
:1015400028780D285BD2DFE800F0070A11181F2663
:101550002D343B424950570000F004FB5AE02B78F1
:10156000CC220021962000F00BFB53E02B780022C8
:101570001146FF2000F004FB4CE02B780021FF22F5
:10158000084600F0FDFA45E02B78FF22EA215120C1
:1015900000F0F6FA3EE02B78FF210022084600F02A
:1015A000EFFA37E02B7800226021FF2000F0E8FA04
:1015B00030E02B78FF210022084600F0E1FA29E014
:1015C0002B78FF22EA21512000F0DAFA22E02B7872
:1015D0000021FF22084600F0D3FA1BE02B780022FE
:1015E0001146FF2000F0CCFA14E02B78CC22002129
:1015F000962000F0C5FA0DE000F0B4FA0AE00024ED
:10160000FF2223461146104600F0BAFA641CE4B2E9
:101610000C2CF5D34FF4A8742346144A0021144827
:10162000FFF7C2FE0028F7D1297800E017E0491C37
:101630000D20B1FBF0F200FB121129706978491CF2
:10164000B1FBF0F200FB12106870074844F61F610E
:101650000268D162C160BDE87040FFF78CBC70BD0C
:101660000000002000040040980000205C010020E1
:10167000D80000207047FEE708B50548416941F0F1
:1016800001014161406900F00100009008BD0000C7
:101690000010024008B50D48816941F020018161C8
:1016A000816901F020010091816941F004018161AB
:1016B000816901F004010091816941F008018161B3
:1016C000806900F00800009008BD00000010024092
:1016D00010B5002211461D20FFF72CF91D20FFF741
:1016E0001DF9002211460B20FFF724F9BDE8104038
:1016F0000B20FFF713B9000010B58AB0002408943E
:1017000009941C2101A8FEF724FD15481349016026
:1017100048F69F414160846044F61F61C1600461E6
:101720008461FFF754FD08B1FEF781FE0894099427
:1017300008A90B48FFF7EAFB08B1FEF778FE019411
:10174000029403940594002201A90548FFF714FDB3
:10175000002801D0FEF76BFE0AB010BD0004004067
:101760009800002010B58AB00024089409941C2128
:1017700001A8FEF7EEFC154813490160446084603F
:101780005921C16004618461FFF7BFFD08B1FEF714
:101790004EFE0894099408A90C48FFF7B7FB08B15E
:1017A000FEF745FE60200190029403940594002208
:1017B00001A90648FFF73CFD08B1FEF738FE0348D3
:1017C000FFF7B4FC0AB010BD00080040D8000020AC
:1017D000FEE770470907090E002806DA00F00F003F
:1017E00000F1E02080F8141D704700F1E02080F83F
:1017F000001470477047000008B507494FF4FA52CB
:101800000968B1FBF2F14143009100BF0098411E0D
:101810000091FAD208BD0000940000207047FFF745
:1018200023B830B58FB0282105A8FEF792FC14210B
:101830006846FEF78EFC01210591080406900024FD
:101840000794099102250C950D904FF4E0100E902D
:1018500005A8FFF799F908B1FEF7E9FD0F20009000
:10186000019502944FF4806003900494022168462D
:10187000FFF792F8002801D0FEF7D9FD0FB030BD78
:101880000D48016841F00101016041680B4A1140B7
:10189000416001680A4A11400160016821F4802119
:1018A0000160416821F4FE0141604FF41F01816035
:1018B0000449C00308607047001002400000FFF8B0
:1018C000FFFFF6FE08ED00E00148FFF777BB0000E0
:1018D00098000020F0B50268164C174D174E4FF0D7
:1018E0008047A04205D0B84203D0A84201D0B04200
:1018F00003D122F070034A681A43A04205D0B842CF
:1019000003D0A84201D0B04203D122F44073CA6888
:101910001A4322F080024B69134303608A68C26253
:101920000A688262A04201D1096901630121416113
:10193000F0BD0000002C0140000400400008004001
:1019400010B501238B40046A9C430462036A8A40F9
:101950001343036210BD10B5446A012184F83D10A1
:10196000626A824201D1217710E0A16A814202D1EC
:10197000022020770AE0E16A814202D10420207728
:1019800004E0216B814201D1082020772046FFF737
:1019900009FD0020207710BD10B5406A012180F8B4
:1019A0003D10FFF709FB10BD30B5026A22F00102BD
:1019B0000262036A4268846924F0700424F003051B
:1019C0000C682C4323F002058B682B430D4DA84275
:1019D00006D123F00805CB6843EA050323F004038E
:1019E00009D122F4807222F400724D6945EA0205A1
:1019F0008A6942EA05024260846149684163036280
:101A000030BD0000002C014030B5026A22F0100207
:101A10000262036A4268846924F4E04424F4407456
:101A20000D6844EA052423F020038D6843EA05137A
:101A30000D4DA84206D123F08003CD6843EA05137B
:101A400023F0400309D122F4806222F400624D6940
:101A500042EA85028D6942EA8502426084614968F2
:101A60008163036230BD0000002C014030B5026A82
:101A700022F480720262036A4268C46924F070042E
:101A800024F003050C682C4323F400738D6843EAAB
:101A900005230D4DA84206D123F40063CD6843EA27
:101AA000052323F4806309D122F4805222F40052EA
:101AB0004D6942EA05128D6942EA05124260C4612D
:101AC0004968C163036230BD002C014030B5026A31
:101AD00022F480520262036A4268C46924F4E0443A
:101AE00024F440740D6844EA052423F400538D68FF
:101AF00043EA0533064DA84204D122F480424D69E1
:101B000042EA85124260C46149680164036230BDE3
:101B1000002C0140FEE702E008C8121F08C1002A9D
:101B2000FAD170477047002001E001C1121F002A5E
:101B3000FBD17047FEF7A0FEFFF773FEFFF7AAFD8B
:101B4000FFF79AFDFFF7D8FDFFF70CFEFFF7C0FD8A
:101B50000348FFF703FA0248FFF70DFAFEE700001B
:101B6000980000203020054A1D214FF4A87322F868
:101B70001010401C9842FADB704700005C01002006
:101B80002DE9F841002400943E264FF0010803EBB4
:101B900043032B4C1D274CE0BDF80050C5F1070C4A
:101BA00008FA0CF5054208D0BDF8005005EBC30C4F
:101BB0000CF1380C24F81C6007E0BDF8005005EB70
:101BC000C30C0CF1380C24F81C70BDF80050C5F1A2
:101BD000070C08FA0CF50D4208D0BDF8005005EBD3
:101BE000C30C0CF1300C24F81C6007E0BDF8005069
:101BF00005EBC30C0CF1300C24F81C70BDF8005040
:101C0000C5F1070C08FA0CF5154207D0BDF80050D5
:101C100005EBC305403524F8156006E0BDF800501B
:101C200005EBC305403524F81570BDF800506D1C58
:101C30000095BDF80050082DAED3BDE8F881000036
:101C40005C0100200000000000000000010203040D
:101C500006070809741C0008000000209800000016
:101C6000161B00080C1D00089800002068070000E3
:101C7000261B00080001060708090A0B0C0D0E0FB1
:101C8000101112000F1E2D3C4B5A69788796A5B48F
:101C90000000000000000000000000000000000044
:101CA0000000000000000000000000000000000034
:101CB0000000000000000000000000000000000024
:101CC0000000F03F000000000000F03F00000000B6
:101CD0000000000000000000000000000000000004
:101CE00000000000000000000000000000000000F4
:101CF00000000000000000000000000001000000E3
:0C1D0000100000000000000000A24A04D7
:04000005080000ED02
:00000001FF
